{"abi":[{"anonymous":false,"inputs":[{"indexed":false,"internalType":"address","name":"_bidder","type":"address"},{"indexed":false,"internalType":"uint256","name":"_amount","type":"uint256"},{"indexed":false,"internalType":"uint256","name":"_id","type":"uint256"}],"name":"EndEvent","type":"event"},{"anonymous":false,"inputs":[{"indexed":false,"internalType":"address","name":"_bidder","type":"address"},{"indexed":false,"internalType":"uint256","name":"_amount","type":"uint256"},{"indexed":false,"internalType":"uint256","name":"_id","type":"uint256"}],"name":"auctionStartedEvent","type":"event"},{"anonymous":false,"inputs":[{"indexed":false,"internalType":"address","name":"_bidder","type":"address"},{"indexed":false,"internalType":"uint256","name":"_amount","type":"uint256"},{"indexed":false,"internalType":"uint256","name":"_id","type":"uint256"}],"name":"bidEvent","type":"event"},{"anonymous":false,"inputs":[{"indexed":false,"internalType":"address","name":"_bidder","type":"address"},{"indexed":false,"internalType":"uint256","name":"_amount","type":"uint256"},{"indexed":false,"internalType":"uint256","name":"_id","type":"uint256"}],"name":"widthdrawEvent","type":"event"},{"inputs":[{"internalType":"uint256","name":"","type":"uint256"}],"name":"AuctionMap","outputs":[{"internalType":"address payable","name":"seller","type":"address"},{"internalType":"bool","name":"auctionStarted","type":"bool"},{"internalType":"uint256","name":"auctionId","type":"uint256"},{"internalType":"uint256","name":"nftTokenId","type":"uint256"},{"internalType":"uint256","name":"duration","type":"uint256"},{"internalType":"uint256","name":"bid","type":"uint256"},{"internalType":"bool","name":"ended","type":"bool"},{"internalType":"address","name":"bidder","type":"address"}],"stateMutability":"view","type":"function"},{"inputs":[],"name":"auctionCounter","outputs":[{"internalType":"uint256","name":"","type":"uint256"}],"stateMutability":"view","type":"function"},{"inputs":[{"internalType":"address","name":"","type":"address"}],"name":"bidMap","outputs":[{"internalType":"uint256","name":"","type":"uint256"}],"stateMutability":"view","type":"function"},{"inputs":[{"internalType":"uint256","name":"_id","type":"uint256"}],"name":"end","outputs":[],"stateMutability":"nonpayable","type":"function"},{"inputs":[],"name":"getAlltAuctions","outputs":[{"components":[{"internalType":"address payable","name":"seller","type":"address"},{"internalType":"bool","name":"auctionStarted","type":"bool"},{"internalType":"uint256","name":"auctionId","type":"uint256"},{"internalType":"uint256","name":"nftTokenId","type":"uint256"},{"internalType":"uint256","name":"duration","type":"uint256"},{"internalType":"uint256","name":"bid","type":"uint256"},{"internalType":"bool","name":"ended","type":"bool"},{"internalType":"address","name":"bidder","type":"address"}],"internalType":"struct Auction.Auctions[]","name":"","type":"tuple[]"}],"stateMutability":"view","type":"function"},{"inputs":[{"internalType":"uint256","name":"_id","type":"uint256"}],"name":"getAuctionBidder","outputs":[{"internalType":"address","name":"","type":"address"}],"stateMutability":"view","type":"function"},{"inputs":[{"internalType":"uint256","name":"_id","type":"uint256"}],"name":"getAuctionStatus","outputs":[{"internalType":"bool","name":"","type":"bool"}],"stateMutability":"view","type":"function"},{"inputs":[{"internalType":"uint256","name":"_id","type":"uint256"}],"name":"getDurationTime","outputs":[{"internalType":"uint256","name":"","type":"uint256"}],"stateMutability":"view","type":"function"},{"inputs":[{"internalType":"uint256","name":"_id","type":"uint256"}],"name":"getNftTokenBid","outputs":[{"internalType":"uint256","name":"","type":"uint256"}],"stateMutability":"view","type":"function"},{"inputs":[{"internalType":"uint256","name":"_id","type":"uint256"}],"name":"getNftTokenId","outputs":[{"internalType":"uint256","name":"","type":"uint256"}],"stateMutability":"view","type":"function"},{"inputs":[],"name":"nftId","outputs":[{"internalType":"uint256","name":"","type":"uint256"}],"stateMutability":"view","type":"function"},{"inputs":[{"internalType":"uint256","name":"_id","type":"uint256"}],"name":"putBid","outputs":[],"stateMutability":"payable","type":"function"},{"inputs":[{"internalType":"uint256","name":"_nftTokenId","type":"uint256"},{"internalType":"uint256","name":"_duration","type":"uint256"}],"name":"startAuction","outputs":[],"stateMutability":"payable","type":"function"},{"inputs":[],"name":"widthdraw","outputs":[],"stateMutability":"nonpayable","type":"function"}],"bytecode":"608060405234801561001057600080fd5b50610c0d806100206000396000f3fe6080604052600436106100dd5760003560e01c80637494b04f1161007f578063b13009d211610059578063b13009d21461029d578063c6bc51821461035c578063c897f40214610372578063d2dd5c16146103a357600080fd5b80637494b04f146102145780637765c52c14610244578063a7e766441461028757600080fd5b80634b19c7a2116100bb5780634b19c7a2146101695780634fee13fc146101bf57806352b50a2a146101d257806356e9e79a146101e757600080fd5b80630ad24528146100e2578063236fe999146101045780632daba9e114610147575b600080fd5b3480156100ee57600080fd5b506101026100fd366004610a2a565b6103b6565b005b34801561011057600080fd5b5061013461011f366004610a2a565b60009081526003602052604090206004015490565b6040519081526020015b60405180910390f35b34801561015357600080fd5b5061015c61057c565b60405161013e9190610a43565b34801561017557600080fd5b506101a7610184366004610a2a565b60009081526003602052604090206005015461010090046001600160a01b031690565b6040516001600160a01b03909116815260200161013e565b6101026101cd366004610af1565b6106d3565b3480156101de57600080fd5b50610102610817565b3480156101f357600080fd5b50610134610202366004610b13565b60026020526000908152604090205481565b34801561022057600080fd5b5061013461022f366004610a2a565b60009081526003602052604090206002015490565b34801561025057600080fd5b5061027761025f366004610a2a565b60009081526003602052604090206005015460ff1690565b604051901515815260200161013e565b34801561029357600080fd5b5061013460005481565b3480156102a957600080fd5b506103106102b8366004610a2a565b60036020819052600091825260409091208054600182015460028301549383015460048401546005909401546001600160a01b038085169660ff600160a01b9096048616969495909492908116916101009091041688565b604080516001600160a01b03998a16815297151560208901528701959095526060860193909352608085019190915260a0840152151560c083015290911660e08201526101000161013e565b34801561036857600080fd5b5061013460015481565b34801561037e57600080fd5b5061013461038d366004610a2a565b6000908152600360208190526040909120015490565b6101026103b1366004610a2a565b610899565b600081815260036020526040902054600160a01b900460ff1661040e5760405162461bcd60e51b815260206004820152600b60248201526a1b9bdd081cdd185c9d195960aa1b60448201526064015b60405180910390fd5b6000818152600360208190526040909120015442116104665760405162461bcd60e51b8152602060048201526014602482015273323ab930ba34b7b71034b9903737ba1037bb32b960611b6044820152606401610405565b60008181526003602052604090206005015460ff16156104b95760405162461bcd60e51b815260206004820152600e60248201526d1a5d09dcc81b9bdd08195b99195960921b6044820152606401610405565b6000818152600360205260409020600581018054600490920154600160ff198416179091556101009091046001600160a01b031690811561053a576000838152600360205260408082205490516001600160a01b039091169183156108fc02918491818181858888f19350505050158015610538573d6000803e3d6000fd5b505b7fa924629d4099d6537de855ae6fb7a38e37a8d9717b2b51c33b8f6da2f20b82dd338260015460405161056f93929190610b43565b60405180910390a1505050565b60606000805467ffffffffffffffff81111561059a5761059a610b64565b60405190808252806020026020018201604052801561060957816020015b604080516101008101825260008082526020808301829052928201819052606082018190526080820181905260a0820181905260c0820181905260e082015282526000199092019101816105b85790505b50905060005b60005481116106cd576000818152600360208181526040928390208351610100808201865282546001600160a01b03808216845260ff600160a01b909204821615159584019590955260018401549683019690965260028301546060830152938201546080820152600482015460a08201526005820154948516151560c0820152929093041660e082015283518490849081106106ae576106ae610b7a565b60200260200101819052505080806106c590610ba6565b91505061060f565b50919050565b6040805161010081018252338152600160208201526000549181019190915260608101839052608081016107078342610bbf565b815234602080830191909152600060408084018290523360609485015281548252600380845281832086518154958801511515600160a01b026001600160a81b03199687166001600160a01b03928316171782559287015160018281019190915595870151600282015560808701519181019190915560a0860151600482015560c08601516005909101805460e09097015190921661010002610100600160a81b031991151591909116959093169490941791909117909255815490919081906107d2908490610bbf565b90915550506040517f812cd8ef7a1b4e0fdf7041785c874fdfd2f12113408e3157b137e29c7fa0a2ee9061080b90339034908690610b43565b60405180910390a15050565b33600081815260026020526040808220805490839055905190929183156108fc02918491818181858888f19350505050158015610858573d6000803e3d6000fd5b507f02298915c50193f5b65c306d0c9b275587011f2b81b39808aa41623c263c6214338260015460405161088e93929190610b43565b60405180910390a150565b600081815260036020526040902054600160a01b900460ff166108ed5760405162461bcd60e51b815260206004820152600c60248201526b2737ba1039ba30b93a32b21760a11b6044820152606401610405565b600080548152600360208190526040909120015442116109405760405162461bcd60e51b815260206004820152600e60248201526d30b63932b0b23c9032b73232b21760911b6044820152606401610405565b6000805481526003602052604090206004015434116109955760405162461bcd60e51b81526020600482015260116024820152702a37903637bb9039ba30b93a103134b21760791b6044820152606401610405565b6000818152600360205260409020600581018054610100600160a81b0319163361010081029190911790915534600490920191909155156109f55733600090815260026020526040812080543492906109ef908490610bbf565b90915550505b7f60b289782b4cefa546ebf8702e21d047e4cd6daf90892dce5791f0b20585ac17333460015460405161088e93929190610b43565b600060208284031215610a3c57600080fd5b5035919050565b602080825282518282018190526000919060409081850190868401855b82811015610ae457815180516001600160a01b03168552868101511515878601528581015186860152606080820151908601526080808201519086015260a0808201519086015260c08082015115159086015260e09081015190610ace818701836001600160a01b03169052565b5050610100939093019290850190600101610a60565b5091979650505050505050565b60008060408385031215610b0457600080fd5b50508035926020909101359150565b600060208284031215610b2557600080fd5b81356001600160a01b0381168114610b3c57600080fd5b9392505050565b6001600160a01b039390931683526020830191909152604082015260600190565b634e487b7160e01b600052604160045260246000fd5b634e487b7160e01b600052603260045260246000fd5b634e487b7160e01b600052601160045260246000fd5b600060018201610bb857610bb8610b90565b5060010190565b60008219821115610bd257610bd2610b90565b50019056fea264697066735822122003c894a7758d94f7db8dbb8cb03c4e185347e49b4681a1be32870e774ca28f4864736f6c634300080e0033","bytecodeSha1":"67756d88c6f5f4e156aea9f7b2fdb0b37b748578","compiler":{"evm_version":"istanbul","optimizer":{"enabled":true,"runs":200},"version":"0.8.14+commit.80d49f37"},"contractName":"Auction","language":"Solidity","natspec":{"kind":"dev","methods":{},"version":1},"opcodes":"PUSH1 0x80 PUSH1 0x40 MSTORE PUSH1 0x4 CALLDATASIZE LT PUSH2 0xDD JUMPI PUSH1 0x0 CALLDATALOAD PUSH1 0xE0 SHR DUP1 PUSH4 0x7494B04F GT PUSH2 0x7F JUMPI DUP1 PUSH4 0xB13009D2 GT PUSH2 0x59 JUMPI DUP1 PUSH4 0xB13009D2 EQ PUSH2 0x29D JUMPI DUP1 PUSH4 0xC6BC5182 EQ PUSH2 0x35C JUMPI DUP1 PUSH4 0xC897F402 EQ PUSH2 0x372 JUMPI DUP1 PUSH4 0xD2DD5C16 EQ PUSH2 0x3A3 JUMPI PUSH1 0x0 DUP1 REVERT JUMPDEST DUP1 PUSH4 0x7494B04F EQ PUSH2 0x214 JUMPI DUP1 PUSH4 0x7765C52C EQ PUSH2 0x244 JUMPI DUP1 PUSH4 0xA7E76644 EQ PUSH2 0x287 JUMPI PUSH1 0x0 DUP1 REVERT JUMPDEST DUP1 PUSH4 0x4B19C7A2 GT PUSH2 0xBB JUMPI DUP1 PUSH4 0x4B19C7A2 EQ PUSH2 0x169 JUMPI DUP1 PUSH4 0x4FEE13FC EQ PUSH2 0x1BF JUMPI DUP1 PUSH4 0x52B50A2A EQ PUSH2 0x1D2 JUMPI DUP1 PUSH4 0x56E9E79A EQ PUSH2 0x1E7 JUMPI PUSH1 0x0 DUP1 REVERT JUMPDEST DUP1 PUSH4 0xAD24528 EQ PUSH2 0xE2 JUMPI DUP1 PUSH4 0x236FE999 EQ PUSH2 0x104 JUMPI DUP1 PUSH4 0x2DABA9E1 EQ PUSH2 0x147 JUMPI JUMPDEST PUSH1 0x0 DUP1 REVERT JUMPDEST CALLVALUE DUP1 ISZERO PUSH2 0xEE JUMPI PUSH1 0x0 DUP1 REVERT JUMPDEST POP PUSH2 0x102 PUSH2 0xFD CALLDATASIZE PUSH1 0x4 PUSH2 0xA2A JUMP JUMPDEST PUSH2 0x3B6 JUMP JUMPDEST STOP JUMPDEST CALLVALUE DUP1 ISZERO PUSH2 0x110 JUMPI PUSH1 0x0 DUP1 REVERT JUMPDEST POP PUSH2 0x134 PUSH2 0x11F CALLDATASIZE PUSH1 0x4 PUSH2 0xA2A JUMP JUMPDEST PUSH1 0x0 SWAP1 DUP2 MSTORE PUSH1 0x3 PUSH1 0x20 MSTORE PUSH1 0x40 SWAP1 KECCAK256 PUSH1 0x4 ADD SLOAD SWAP1 JUMP JUMPDEST PUSH1 0x40 MLOAD SWAP1 DUP2 MSTORE PUSH1 0x20 ADD JUMPDEST PUSH1 0x40 MLOAD DUP1 SWAP2 SUB SWAP1 RETURN JUMPDEST CALLVALUE DUP1 ISZERO PUSH2 0x153 JUMPI PUSH1 0x0 DUP1 REVERT JUMPDEST POP PUSH2 0x15C PUSH2 0x57C JUMP JUMPDEST PUSH1 0x40 MLOAD PUSH2 0x13E SWAP2 SWAP1 PUSH2 0xA43 JUMP JUMPDEST CALLVALUE DUP1 ISZERO PUSH2 0x175 JUMPI PUSH1 0x0 DUP1 REVERT JUMPDEST POP PUSH2 0x1A7 PUSH2 0x184 CALLDATASIZE PUSH1 0x4 PUSH2 0xA2A JUMP JUMPDEST PUSH1 0x0 SWAP1 DUP2 MSTORE PUSH1 0x3 PUSH1 0x20 MSTORE PUSH1 0x40 SWAP1 KECCAK256 PUSH1 0x5 ADD SLOAD PUSH2 0x100 SWAP1 DIV PUSH1 0x1 PUSH1 0x1 PUSH1 0xA0 SHL SUB AND SWAP1 JUMP JUMPDEST PUSH1 0x40 MLOAD PUSH1 0x1 PUSH1 0x1 PUSH1 0xA0 SHL SUB SWAP1 SWAP2 AND DUP2 MSTORE PUSH1 0x20 ADD PUSH2 0x13E JUMP JUMPDEST PUSH2 0x102 PUSH2 0x1CD CALLDATASIZE PUSH1 0x4 PUSH2 0xAF1 JUMP JUMPDEST PUSH2 0x6D3 JUMP JUMPDEST CALLVALUE DUP1 ISZERO PUSH2 0x1DE JUMPI PUSH1 0x0 DUP1 REVERT JUMPDEST POP PUSH2 0x102 PUSH2 0x817 JUMP JUMPDEST CALLVALUE DUP1 ISZERO PUSH2 0x1F3 JUMPI PUSH1 0x0 DUP1 REVERT JUMPDEST POP PUSH2 0x134 PUSH2 0x202 CALLDATASIZE PUSH1 0x4 PUSH2 0xB13 JUMP JUMPDEST PUSH1 0x2 PUSH1 0x20 MSTORE PUSH1 0x0 SWAP1 DUP2 MSTORE PUSH1 0x40 SWAP1 KECCAK256 SLOAD DUP2 JUMP JUMPDEST CALLVALUE DUP1 ISZERO PUSH2 0x220 JUMPI PUSH1 0x0 DUP1 REVERT JUMPDEST POP PUSH2 0x134 PUSH2 0x22F CALLDATASIZE PUSH1 0x4 PUSH2 0xA2A JUMP JUMPDEST PUSH1 0x0 SWAP1 DUP2 MSTORE PUSH1 0x3 PUSH1 0x20 MSTORE PUSH1 0x40 SWAP1 KECCAK256 PUSH1 0x2 ADD SLOAD SWAP1 JUMP JUMPDEST CALLVALUE DUP1 ISZERO PUSH2 0x250 JUMPI PUSH1 0x0 DUP1 REVERT JUMPDEST POP PUSH2 0x277 PUSH2 0x25F CALLDATASIZE PUSH1 0x4 PUSH2 0xA2A JUMP JUMPDEST PUSH1 0x0 SWAP1 DUP2 MSTORE PUSH1 0x3 PUSH1 0x20 MSTORE PUSH1 0x40 SWAP1 KECCAK256 PUSH1 0x5 ADD SLOAD PUSH1 0xFF AND SWAP1 JUMP JUMPDEST PUSH1 0x40 MLOAD SWAP1 ISZERO ISZERO DUP2 MSTORE PUSH1 0x20 ADD PUSH2 0x13E JUMP JUMPDEST CALLVALUE DUP1 ISZERO PUSH2 0x293 JUMPI PUSH1 0x0 DUP1 REVERT JUMPDEST POP PUSH2 0x134 PUSH1 0x0 SLOAD DUP2 JUMP JUMPDEST CALLVALUE DUP1 ISZERO PUSH2 0x2A9 JUMPI PUSH1 0x0 DUP1 REVERT JUMPDEST POP PUSH2 0x310 PUSH2 0x2B8 CALLDATASIZE PUSH1 0x4 PUSH2 0xA2A JUMP JUMPDEST PUSH1 0x3 PUSH1 0x20 DUP2 SWAP1 MSTORE PUSH1 0x0 SWAP2 DUP3 MSTORE PUSH1 0x40 SWAP1 SWAP2 KECCAK256 DUP1 SLOAD PUSH1 0x1 DUP3 ADD SLOAD PUSH1 0x2 DUP4 ADD SLOAD SWAP4 DUP4 ADD SLOAD PUSH1 0x4 DUP5 ADD SLOAD PUSH1 0x5 SWAP1 SWAP5 ADD SLOAD PUSH1 0x1 PUSH1 0x1 PUSH1 0xA0 SHL SUB DUP1 DUP6 AND SWAP7 PUSH1 0xFF PUSH1 0x1 PUSH1 0xA0 SHL SWAP1 SWAP7 DIV DUP7 AND SWAP7 SWAP5 SWAP6 SWAP1 SWAP5 SWAP3 SWAP1 DUP2 AND SWAP2 PUSH2 0x100 SWAP1 SWAP2 DIV AND DUP9 JUMP JUMPDEST PUSH1 0x40 DUP1 MLOAD PUSH1 0x1 PUSH1 0x1 PUSH1 0xA0 SHL SUB SWAP10 DUP11 AND DUP2 MSTORE SWAP8 ISZERO ISZERO PUSH1 0x20 DUP10 ADD MSTORE DUP8 ADD SWAP6 SWAP1 SWAP6 MSTORE PUSH1 0x60 DUP7 ADD SWAP4 SWAP1 SWAP4 MSTORE PUSH1 0x80 DUP6 ADD SWAP2 SWAP1 SWAP2 MSTORE PUSH1 0xA0 DUP5 ADD MSTORE ISZERO ISZERO PUSH1 0xC0 DUP4 ADD MSTORE SWAP1 SWAP2 AND PUSH1 0xE0 DUP3 ADD MSTORE PUSH2 0x100 ADD PUSH2 0x13E JUMP JUMPDEST CALLVALUE DUP1 ISZERO PUSH2 0x368 JUMPI PUSH1 0x0 DUP1 REVERT JUMPDEST POP PUSH2 0x134 PUSH1 0x1 SLOAD DUP2 JUMP JUMPDEST CALLVALUE DUP1 ISZERO PUSH2 0x37E JUMPI PUSH1 0x0 DUP1 REVERT JUMPDEST POP PUSH2 0x134 PUSH2 0x38D CALLDATASIZE PUSH1 0x4 PUSH2 0xA2A JUMP JUMPDEST PUSH1 0x0 SWAP1 DUP2 MSTORE PUSH1 0x3 PUSH1 0x20 DUP2 SWAP1 MSTORE PUSH1 0x40 SWAP1 SWAP2 KECCAK256 ADD SLOAD SWAP1 JUMP JUMPDEST PUSH2 0x102 PUSH2 0x3B1 CALLDATASIZE PUSH1 0x4 PUSH2 0xA2A JUMP JUMPDEST PUSH2 0x899 JUMP JUMPDEST PUSH1 0x0 DUP2 DUP2 MSTORE PUSH1 0x3 PUSH1 0x20 MSTORE PUSH1 0x40 SWAP1 KECCAK256 SLOAD PUSH1 0x1 PUSH1 0xA0 SHL SWAP1 DIV PUSH1 0xFF AND PUSH2 0x40E JUMPI PUSH1 0x40 MLOAD PUSH3 0x461BCD PUSH1 0xE5 SHL DUP2 MSTORE PUSH1 0x20 PUSH1 0x4 DUP3 ADD MSTORE PUSH1 0xB PUSH1 0x24 DUP3 ADD MSTORE PUSH11 0x1B9BDD081CDD185C9D1959 PUSH1 0xAA SHL PUSH1 0x44 DUP3 ADD MSTORE PUSH1 0x64 ADD JUMPDEST PUSH1 0x40 MLOAD DUP1 SWAP2 SUB SWAP1 REVERT JUMPDEST PUSH1 0x0 DUP2 DUP2 MSTORE PUSH1 0x3 PUSH1 0x20 DUP2 SWAP1 MSTORE PUSH1 0x40 SWAP1 SWAP2 KECCAK256 ADD SLOAD TIMESTAMP GT PUSH2 0x466 JUMPI PUSH1 0x40 MLOAD PUSH3 0x461BCD PUSH1 0xE5 SHL DUP2 MSTORE PUSH1 0x20 PUSH1 0x4 DUP3 ADD MSTORE PUSH1 0x14 PUSH1 0x24 DUP3 ADD MSTORE PUSH20 0x323AB930BA34B7B71034B9903737BA1037BB32B9 PUSH1 0x61 SHL PUSH1 0x44 DUP3 ADD MSTORE PUSH1 0x64 ADD PUSH2 0x405 JUMP JUMPDEST PUSH1 0x0 DUP2 DUP2 MSTORE PUSH1 0x3 PUSH1 0x20 MSTORE PUSH1 0x40 SWAP1 KECCAK256 PUSH1 0x5 ADD SLOAD PUSH1 0xFF AND ISZERO PUSH2 0x4B9 JUMPI PUSH1 0x40 MLOAD PUSH3 0x461BCD PUSH1 0xE5 SHL DUP2 MSTORE PUSH1 0x20 PUSH1 0x4 DUP3 ADD MSTORE PUSH1 0xE PUSH1 0x24 DUP3 ADD MSTORE PUSH14 0x1A5D09DCC81B9BDD08195B991959 PUSH1 0x92 SHL PUSH1 0x44 DUP3 ADD MSTORE PUSH1 0x64 ADD PUSH2 0x405 JUMP JUMPDEST PUSH1 0x0 DUP2 DUP2 MSTORE PUSH1 0x3 PUSH1 0x20 MSTORE PUSH1 0x40 SWAP1 KECCAK256 PUSH1 0x5 DUP2 ADD DUP1 SLOAD PUSH1 0x4 SWAP1 SWAP3 ADD SLOAD PUSH1 0x1 PUSH1 0xFF NOT DUP5 AND OR SWAP1 SWAP2 SSTORE PUSH2 0x100 SWAP1 SWAP2 DIV PUSH1 0x1 PUSH1 0x1 PUSH1 0xA0 SHL SUB AND SWAP1 DUP2 ISZERO PUSH2 0x53A JUMPI PUSH1 0x0 DUP4 DUP2 MSTORE PUSH1 0x3 PUSH1 0x20 MSTORE PUSH1 0x40 DUP1 DUP3 KECCAK256 SLOAD SWAP1 MLOAD PUSH1 0x1 PUSH1 0x1 PUSH1 0xA0 SHL SUB SWAP1 SWAP2 AND SWAP2 DUP4 ISZERO PUSH2 0x8FC MUL SWAP2 DUP5 SWAP2 DUP2 DUP2 DUP2 DUP6 DUP9 DUP9 CALL SWAP4 POP POP POP POP ISZERO DUP1 ISZERO PUSH2 0x538 JUMPI RETURNDATASIZE PUSH1 0x0 DUP1 RETURNDATACOPY RETURNDATASIZE PUSH1 0x0 REVERT JUMPDEST POP JUMPDEST PUSH32 0xA924629D4099D6537DE855AE6FB7A38E37A8D9717B2B51C33B8F6DA2F20B82DD CALLER DUP3 PUSH1 0x1 SLOAD PUSH1 0x40 MLOAD PUSH2 0x56F SWAP4 SWAP3 SWAP2 SWAP1 PUSH2 0xB43 JUMP JUMPDEST PUSH1 0x40 MLOAD DUP1 SWAP2 SUB SWAP1 LOG1 POP POP POP JUMP JUMPDEST PUSH1 0x60 PUSH1 0x0 DUP1 SLOAD PUSH8 0xFFFFFFFFFFFFFFFF DUP2 GT ISZERO PUSH2 0x59A JUMPI PUSH2 0x59A PUSH2 0xB64 JUMP JUMPDEST PUSH1 0x40 MLOAD SWAP1 DUP1 DUP3 MSTORE DUP1 PUSH1 0x20 MUL PUSH1 0x20 ADD DUP3 ADD PUSH1 0x40 MSTORE DUP1 ISZERO PUSH2 0x609 JUMPI DUP2 PUSH1 0x20 ADD JUMPDEST PUSH1 0x40 DUP1 MLOAD PUSH2 0x100 DUP2 ADD DUP3 MSTORE PUSH1 0x0 DUP1 DUP3 MSTORE PUSH1 0x20 DUP1 DUP4 ADD DUP3 SWAP1 MSTORE SWAP3 DUP3 ADD DUP2 SWAP1 MSTORE PUSH1 0x60 DUP3 ADD DUP2 SWAP1 MSTORE PUSH1 0x80 DUP3 ADD DUP2 SWAP1 MSTORE PUSH1 0xA0 DUP3 ADD DUP2 SWAP1 MSTORE PUSH1 0xC0 DUP3 ADD DUP2 SWAP1 MSTORE PUSH1 0xE0 DUP3 ADD MSTORE DUP3 MSTORE PUSH1 0x0 NOT SWAP1 SWAP3 ADD SWAP2 ADD DUP2 PUSH2 0x5B8 JUMPI SWAP1 POP JUMPDEST POP SWAP1 POP PUSH1 0x0 JUMPDEST PUSH1 0x0 SLOAD DUP2 GT PUSH2 0x6CD JUMPI PUSH1 0x0 DUP2 DUP2 MSTORE PUSH1 0x3 PUSH1 0x20 DUP2 DUP2 MSTORE PUSH1 0x40 SWAP3 DUP4 SWAP1 KECCAK256 DUP4 MLOAD PUSH2 0x100 DUP1 DUP3 ADD DUP7 MSTORE DUP3 SLOAD PUSH1 0x1 PUSH1 0x1 PUSH1 0xA0 SHL SUB DUP1 DUP3 AND DUP5 MSTORE PUSH1 0xFF PUSH1 0x1 PUSH1 0xA0 SHL SWAP1 SWAP3 DIV DUP3 AND ISZERO ISZERO SWAP6 DUP5 ADD SWAP6 SWAP1 SWAP6 MSTORE PUSH1 0x1 DUP5 ADD SLOAD SWAP7 DUP4 ADD SWAP7 SWAP1 SWAP7 MSTORE PUSH1 0x2 DUP4 ADD SLOAD PUSH1 0x60 DUP4 ADD MSTORE SWAP4 DUP3 ADD SLOAD PUSH1 0x80 DUP3 ADD MSTORE PUSH1 0x4 DUP3 ADD SLOAD PUSH1 0xA0 DUP3 ADD MSTORE PUSH1 0x5 DUP3 ADD SLOAD SWAP5 DUP6 AND ISZERO ISZERO PUSH1 0xC0 DUP3 ADD MSTORE SWAP3 SWAP1 SWAP4 DIV AND PUSH1 0xE0 DUP3 ADD MSTORE DUP4 MLOAD DUP5 SWAP1 DUP5 SWAP1 DUP2 LT PUSH2 0x6AE JUMPI PUSH2 0x6AE PUSH2 0xB7A JUMP JUMPDEST PUSH1 0x20 MUL PUSH1 0x20 ADD ADD DUP2 SWAP1 MSTORE POP POP DUP1 DUP1 PUSH2 0x6C5 SWAP1 PUSH2 0xBA6 JUMP JUMPDEST SWAP2 POP POP PUSH2 0x60F JUMP JUMPDEST POP SWAP2 SWAP1 POP JUMP JUMPDEST PUSH1 0x40 DUP1 MLOAD PUSH2 0x100 DUP2 ADD DUP3 MSTORE CALLER DUP2 MSTORE PUSH1 0x1 PUSH1 0x20 DUP3 ADD MSTORE PUSH1 0x0 SLOAD SWAP2 DUP2 ADD SWAP2 SWAP1 SWAP2 MSTORE PUSH1 0x60 DUP2 ADD DUP4 SWAP1 MSTORE PUSH1 0x80 DUP2 ADD PUSH2 0x707 DUP4 TIMESTAMP PUSH2 0xBBF JUMP JUMPDEST DUP2 MSTORE CALLVALUE PUSH1 0x20 DUP1 DUP4 ADD SWAP2 SWAP1 SWAP2 MSTORE PUSH1 0x0 PUSH1 0x40 DUP1 DUP5 ADD DUP3 SWAP1 MSTORE CALLER PUSH1 0x60 SWAP5 DUP6 ADD MSTORE DUP2 SLOAD DUP3 MSTORE PUSH1 0x3 DUP1 DUP5 MSTORE DUP2 DUP4 KECCAK256 DUP7 MLOAD DUP2 SLOAD SWAP6 DUP9 ADD MLOAD ISZERO ISZERO PUSH1 0x1 PUSH1 0xA0 SHL MUL PUSH1 0x1 PUSH1 0x1 PUSH1 0xA8 SHL SUB NOT SWAP7 DUP8 AND PUSH1 0x1 PUSH1 0x1 PUSH1 0xA0 SHL SUB SWAP3 DUP4 AND OR OR DUP3 SSTORE SWAP3 DUP8 ADD MLOAD PUSH1 0x1 DUP3 DUP2 ADD SWAP2 SWAP1 SWAP2 SSTORE SWAP6 DUP8 ADD MLOAD PUSH1 0x2 DUP3 ADD SSTORE PUSH1 0x80 DUP8 ADD MLOAD SWAP2 DUP2 ADD SWAP2 SWAP1 SWAP2 SSTORE PUSH1 0xA0 DUP7 ADD MLOAD PUSH1 0x4 DUP3 ADD SSTORE PUSH1 0xC0 DUP7 ADD MLOAD PUSH1 0x5 SWAP1 SWAP2 ADD DUP1 SLOAD PUSH1 0xE0 SWAP1 SWAP8 ADD MLOAD SWAP1 SWAP3 AND PUSH2 0x100 MUL PUSH2 0x100 PUSH1 0x1 PUSH1 0xA8 SHL SUB NOT SWAP2 ISZERO ISZERO SWAP2 SWAP1 SWAP2 AND SWAP6 SWAP1 SWAP4 AND SWAP5 SWAP1 SWAP5 OR SWAP2 SWAP1 SWAP2 OR SWAP1 SWAP3 SSTORE DUP2 SLOAD SWAP1 SWAP2 SWAP1 DUP2 SWAP1 PUSH2 0x7D2 SWAP1 DUP5 SWAP1 PUSH2 0xBBF JUMP JUMPDEST SWAP1 SWAP2 SSTORE POP POP PUSH1 0x40 MLOAD PUSH32 0x812CD8EF7A1B4E0FDF7041785C874FDFD2F12113408E3157B137E29C7FA0A2EE SWAP1 PUSH2 0x80B SWAP1 CALLER SWAP1 CALLVALUE SWAP1 DUP7 SWAP1 PUSH2 0xB43 JUMP JUMPDEST PUSH1 0x40 MLOAD DUP1 SWAP2 SUB SWAP1 LOG1 POP POP JUMP JUMPDEST CALLER PUSH1 0x0 DUP2 DUP2 MSTORE PUSH1 0x2 PUSH1 0x20 MSTORE PUSH1 0x40 DUP1 DUP3 KECCAK256 DUP1 SLOAD SWAP1 DUP4 SWAP1 SSTORE SWAP1 MLOAD SWAP1 SWAP3 SWAP2 DUP4 ISZERO PUSH2 0x8FC MUL SWAP2 DUP5 SWAP2 DUP2 DUP2 DUP2 DUP6 DUP9 DUP9 CALL SWAP4 POP POP POP POP ISZERO DUP1 ISZERO PUSH2 0x858 JUMPI RETURNDATASIZE PUSH1 0x0 DUP1 RETURNDATACOPY RETURNDATASIZE PUSH1 0x0 REVERT JUMPDEST POP PUSH32 0x2298915C50193F5B65C306D0C9B275587011F2B81B39808AA41623C263C6214 CALLER DUP3 PUSH1 0x1 SLOAD PUSH1 0x40 MLOAD PUSH2 0x88E SWAP4 SWAP3 SWAP2 SWAP1 PUSH2 0xB43 JUMP JUMPDEST PUSH1 0x40 MLOAD DUP1 SWAP2 SUB SWAP1 LOG1 POP JUMP JUMPDEST PUSH1 0x0 DUP2 DUP2 MSTORE PUSH1 0x3 PUSH1 0x20 MSTORE PUSH1 0x40 SWAP1 KECCAK256 SLOAD PUSH1 0x1 PUSH1 0xA0 SHL SWAP1 DIV PUSH1 0xFF AND PUSH2 0x8ED JUMPI PUSH1 0x40 MLOAD PUSH3 0x461BCD PUSH1 0xE5 SHL DUP2 MSTORE PUSH1 0x20 PUSH1 0x4 DUP3 ADD MSTORE PUSH1 0xC PUSH1 0x24 DUP3 ADD MSTORE PUSH12 0x2737BA1039BA30B93A32B217 PUSH1 0xA1 SHL PUSH1 0x44 DUP3 ADD MSTORE PUSH1 0x64 ADD PUSH2 0x405 JUMP JUMPDEST PUSH1 0x0 DUP1 SLOAD DUP2 MSTORE PUSH1 0x3 PUSH1 0x20 DUP2 SWAP1 MSTORE PUSH1 0x40 SWAP1 SWAP2 KECCAK256 ADD SLOAD TIMESTAMP GT PUSH2 0x940 JUMPI PUSH1 0x40 MLOAD PUSH3 0x461BCD PUSH1 0xE5 SHL DUP2 MSTORE PUSH1 0x20 PUSH1 0x4 DUP3 ADD MSTORE PUSH1 0xE PUSH1 0x24 DUP3 ADD MSTORE PUSH14 0x30B63932B0B23C9032B73232B217 PUSH1 0x91 SHL PUSH1 0x44 DUP3 ADD MSTORE PUSH1 0x64 ADD PUSH2 0x405 JUMP JUMPDEST PUSH1 0x0 DUP1 SLOAD DUP2 MSTORE PUSH1 0x3 PUSH1 0x20 MSTORE PUSH1 0x40 SWAP1 KECCAK256 PUSH1 0x4 ADD SLOAD CALLVALUE GT PUSH2 0x995 JUMPI PUSH1 0x40 MLOAD PUSH3 0x461BCD PUSH1 0xE5 SHL DUP2 MSTORE PUSH1 0x20 PUSH1 0x4 DUP3 ADD MSTORE PUSH1 0x11 PUSH1 0x24 DUP3 ADD MSTORE PUSH17 0x2A37903637BB9039BA30B93A103134B217 PUSH1 0x79 SHL PUSH1 0x44 DUP3 ADD MSTORE PUSH1 0x64 ADD PUSH2 0x405 JUMP JUMPDEST PUSH1 0x0 DUP2 DUP2 MSTORE PUSH1 0x3 PUSH1 0x20 MSTORE PUSH1 0x40 SWAP1 KECCAK256 PUSH1 0x5 DUP2 ADD DUP1 SLOAD PUSH2 0x100 PUSH1 0x1 PUSH1 0xA8 SHL SUB NOT AND CALLER PUSH2 0x100 DUP2 MUL SWAP2 SWAP1 SWAP2 OR SWAP1 SWAP2 SSTORE CALLVALUE PUSH1 0x4 SWAP1 SWAP3 ADD SWAP2 SWAP1 SWAP2 SSTORE ISZERO PUSH2 0x9F5 JUMPI CALLER PUSH1 0x0 SWAP1 DUP2 MSTORE PUSH1 0x2 PUSH1 0x20 MSTORE PUSH1 0x40 DUP2 KECCAK256 DUP1 SLOAD CALLVALUE SWAP3 SWAP1 PUSH2 0x9EF SWAP1 DUP5 SWAP1 PUSH2 0xBBF JUMP JUMPDEST SWAP1 SWAP2 SSTORE POP POP JUMPDEST PUSH32 0x60B289782B4CEFA546EBF8702E21D047E4CD6DAF90892DCE5791F0B20585AC17 CALLER CALLVALUE PUSH1 0x1 SLOAD PUSH1 0x40 MLOAD PUSH2 0x88E SWAP4 SWAP3 SWAP2 SWAP1 PUSH2 0xB43 JUMP JUMPDEST PUSH1 0x0 PUSH1 0x20 DUP3 DUP5 SUB SLT ISZERO PUSH2 0xA3C JUMPI PUSH1 0x0 DUP1 REVERT JUMPDEST POP CALLDATALOAD SWAP2 SWAP1 POP JUMP JUMPDEST PUSH1 0x20 DUP1 DUP3 MSTORE DUP3 MLOAD DUP3 DUP3 ADD DUP2 SWAP1 MSTORE PUSH1 0x0 SWAP2 SWAP1 PUSH1 0x40 SWAP1 DUP2 DUP6 ADD SWAP1 DUP7 DUP5 ADD DUP6 JUMPDEST DUP3 DUP2 LT ISZERO PUSH2 0xAE4 JUMPI DUP2 MLOAD DUP1 MLOAD PUSH1 0x1 PUSH1 0x1 PUSH1 0xA0 SHL SUB AND DUP6 MSTORE DUP7 DUP2 ADD MLOAD ISZERO ISZERO DUP8 DUP7 ADD MSTORE DUP6 DUP2 ADD MLOAD DUP7 DUP7 ADD MSTORE PUSH1 0x60 DUP1 DUP3 ADD MLOAD SWAP1 DUP7 ADD MSTORE PUSH1 0x80 DUP1 DUP3 ADD MLOAD SWAP1 DUP7 ADD MSTORE PUSH1 0xA0 DUP1 DUP3 ADD MLOAD SWAP1 DUP7 ADD MSTORE PUSH1 0xC0 DUP1 DUP3 ADD MLOAD ISZERO ISZERO SWAP1 DUP7 ADD MSTORE PUSH1 0xE0 SWAP1 DUP2 ADD MLOAD SWAP1 PUSH2 0xACE DUP2 DUP8 ADD DUP4 PUSH1 0x1 PUSH1 0x1 PUSH1 0xA0 SHL SUB AND SWAP1 MSTORE JUMP JUMPDEST POP POP PUSH2 0x100 SWAP4 SWAP1 SWAP4 ADD SWAP3 SWAP1 DUP6 ADD SWAP1 PUSH1 0x1 ADD PUSH2 0xA60 JUMP JUMPDEST POP SWAP2 SWAP8 SWAP7 POP POP POP POP POP POP POP JUMP JUMPDEST PUSH1 0x0 DUP1 PUSH1 0x40 DUP4 DUP6 SUB SLT ISZERO PUSH2 0xB04 JUMPI PUSH1 0x0 DUP1 REVERT JUMPDEST POP POP DUP1 CALLDATALOAD SWAP3 PUSH1 0x20 SWAP1 SWAP2 ADD CALLDATALOAD SWAP2 POP JUMP JUMPDEST PUSH1 0x0 PUSH1 0x20 DUP3 DUP5 SUB SLT ISZERO PUSH2 0xB25 JUMPI PUSH1 0x0 DUP1 REVERT JUMPDEST DUP2 CALLDATALOAD PUSH1 0x1 PUSH1 0x1 PUSH1 0xA0 SHL SUB DUP2 AND DUP2 EQ PUSH2 0xB3C JUMPI PUSH1 0x0 DUP1 REVERT JUMPDEST SWAP4 SWAP3 POP POP POP JUMP JUMPDEST PUSH1 0x1 PUSH1 0x1 PUSH1 0xA0 SHL SUB SWAP4 SWAP1 SWAP4 AND DUP4 MSTORE PUSH1 0x20 DUP4 ADD SWAP2 SWAP1 SWAP2 MSTORE PUSH1 0x40 DUP3 ADD MSTORE PUSH1 0x60 ADD SWAP1 JUMP JUMPDEST PUSH4 0x4E487B71 PUSH1 0xE0 SHL PUSH1 0x0 MSTORE PUSH1 0x41 PUSH1 0x4 MSTORE PUSH1 0x24 PUSH1 0x0 REVERT JUMPDEST PUSH4 0x4E487B71 PUSH1 0xE0 SHL PUSH1 0x0 MSTORE PUSH1 0x32 PUSH1 0x4 MSTORE PUSH1 0x24 PUSH1 0x0 REVERT JUMPDEST PUSH4 0x4E487B71 PUSH1 0xE0 SHL PUSH1 0x0 MSTORE PUSH1 0x11 PUSH1 0x4 MSTORE PUSH1 0x24 PUSH1 0x0 REVERT JUMPDEST PUSH1 0x0 PUSH1 0x1 DUP3 ADD PUSH2 0xBB8 JUMPI PUSH2 0xBB8 PUSH2 0xB90 JUMP JUMPDEST POP PUSH1 0x1 ADD SWAP1 JUMP JUMPDEST PUSH1 0x0 DUP3 NOT DUP3 GT ISZERO PUSH2 0xBD2 JUMPI PUSH2 0xBD2 PUSH2 0xB90 JUMP JUMPDEST POP ADD SWAP1 JUMP INVALID LOG2 PUSH5 0x6970667358 0x22 SLT KECCAK256 SUB 0xC8 SWAP5 0xA7 PUSH22 0x8D94F7DB8DBB8CB03C4E185347E49B4681A1BE32870E PUSH24 0x4CA28F4864736F6C634300080E0033000000000000000000 ","sha1":"e33f2fe60b06b0ada1b4d857ddb2ea3845959891","source":"//SPDX-License-Identifier: MIT\npragma solidity >=0.6.6 <0.9.0;\n//Create a smart contract that keeps an eye of a created auction!\n\n\ncontract Auction{\n    uint256 public auctionCounter;\n    uint256 public nftId;\n\n    event auctionStartedEvent(address _bidder, uint256 _amount, uint256 _id);\n    event bidEvent(address _bidder, uint256 _amount, uint256 _id);\n    event widthdrawEvent(address _bidder, uint256 _amount, uint256 _id);\n    event EndEvent(address _bidder, uint256 _amount, uint256 _id);\n  \n    mapping(address => uint256) public bidMap;\n\n    mapping(uint256 => Auctions) public AuctionMap;\n    \n    struct Auctions{\n        address payable seller;\n        bool auctionStarted;\n        uint256 auctionId;\n        uint256 nftTokenId;\n        uint256 duration;\n        uint256 bid;\n        bool ended;\n        address bidder;\n    }\n\n    function startAuction (uint256 _nftTokenId, uint256 _duration) public payable {\n        AuctionMap[auctionCounter] = Auctions(payable (msg.sender), true, auctionCounter, _nftTokenId, block.timestamp + _duration, msg.value, false,  msg.sender);\n        auctionCounter += 1;\n        emit auctionStartedEvent(msg.sender, msg.value, _nftTokenId);\n    }\n    //func put bid on auction\n    function putBid(uint256 _id) external payable {\n        require(AuctionMap[_id].auctionStarted, \"Not started.\");\n        require(block.timestamp > AuctionMap[auctionCounter].duration, \"already ended.\");\n        require(msg.value > AuctionMap[auctionCounter].bid, \"To low start bid.\");\n        AuctionMap[_id].bidder = msg.sender;\n        AuctionMap[_id].bid = msg.value;\n    \n        if(msg.sender != address(0)){\n            bidMap[msg.sender] += msg.value;\n        }\n        emit bidEvent(msg.sender, msg.value, nftId);\n    }\n    //func check highest big on auction and if its already ended\n    function widthdraw() external{\n        uint256 bid = bidMap[msg.sender];\n        bidMap[msg.sender] = 0;\n        payable(msg.sender).transfer(bid);        \n        emit widthdrawEvent(msg.sender, bid, nftId);\n    }\n\n    function end(uint256 _id) external{\n        require(AuctionMap[_id].auctionStarted, \"not started\");\n        require(block.timestamp > AuctionMap[_id].duration, \"duration is not over\");\n        require(!AuctionMap[_id].ended, \"it's not ended\");\n        address bidder = AuctionMap[_id].bidder;\n        uint256 bid = AuctionMap[_id].bid;\n        AuctionMap[_id].ended = true;\n        if(bidder != address(0)){\n           // nft.transferFrom(address(this), bidder, nftId);\n            AuctionMap[_id].seller.transfer(bid);\n        }\n        emit EndEvent(msg.sender, bid, nftId);\n    }\n\n    function getAlltAuctions() public view returns(Auctions [] memory){\n        Auctions[] memory allAuctions = new Auctions[](auctionCounter);\n        for(uint256 i = 0; i <= auctionCounter; i++){\n            Auctions storage auctionItem = AuctionMap[i];\n            allAuctions[i] = auctionItem;\n        }\n        return allAuctions;\n    }\n\n    function getDurationTime (uint256 _id) public view returns(uint256){\n        return AuctionMap[_id].duration;\n    }\n\n    function getAuctionBidder (uint256 _id) public view returns(address){\n        return AuctionMap[_id].bidder;\n    }\n\n    function getAuctionStatus (uint256 _id) public view returns(bool){\n        return AuctionMap[_id].ended;\n    }\n\n    function getNftTokenId (uint256 _id) public view returns(uint256){\n        return AuctionMap[_id].nftTokenId;\n    }\n\n    function getNftTokenBid (uint256 _id) public view returns(uint256){\n        return AuctionMap[_id].bid;\n    }\n    \n}","sourcePath":"contracts/auction.sol","type":"contract","deployment":{"address":"0x7017d49A2f15fbcE7EfB408eF68AC9Bed4605Bd8","chainid":"80001","blockHeight":27963277}}